{
  "contractName": "Exchangedata",
  "abi": [
    {
      "constant": true,
      "inputs": [],
      "name": "MRK",
      "outputs": [
        {
          "name": "",
          "type": "bytes32"
        }
      ],
      "payable": false,
      "stateMutability": "view",
      "type": "function"
    },
    {
      "constant": true,
      "inputs": [],
      "name": "provider",
      "outputs": [
        {
          "name": "",
          "type": "address"
        }
      ],
      "payable": false,
      "stateMutability": "view",
      "type": "function"
    },
    {
      "constant": true,
      "inputs": [],
      "name": "n",
      "outputs": [
        {
          "name": "",
          "type": "uint256"
        }
      ],
      "payable": false,
      "stateMutability": "view",
      "type": "function"
    },
    {
      "constant": true,
      "inputs": [],
      "name": "lasttimestamp",
      "outputs": [
        {
          "name": "",
          "type": "uint256"
        }
      ],
      "payable": false,
      "stateMutability": "view",
      "type": "function"
    },
    {
      "constant": true,
      "inputs": [],
      "name": "MRC",
      "outputs": [
        {
          "name": "",
          "type": "bytes32"
        }
      ],
      "payable": false,
      "stateMutability": "view",
      "type": "function"
    },
    {
      "constant": true,
      "inputs": [],
      "name": "nleaves",
      "outputs": [
        {
          "name": "",
          "type": "uint256"
        }
      ],
      "payable": false,
      "stateMutability": "view",
      "type": "function"
    },
    {
      "constant": true,
      "inputs": [],
      "name": "seed",
      "outputs": [
        {
          "name": "",
          "type": "bytes"
        }
      ],
      "payable": false,
      "stateMutability": "view",
      "type": "function"
    },
    {
      "constant": true,
      "inputs": [],
      "name": "p",
      "outputs": [
        {
          "name": "",
          "type": "uint256"
        }
      ],
      "payable": false,
      "stateMutability": "view",
      "type": "function"
    },
    {
      "constant": true,
      "inputs": [],
      "name": "consumer",
      "outputs": [
        {
          "name": "",
          "type": "address"
        }
      ],
      "payable": false,
      "stateMutability": "view",
      "type": "function"
    },
    {
      "constant": true,
      "inputs": [],
      "name": "stage",
      "outputs": [
        {
          "name": "",
          "type": "uint8"
        }
      ],
      "payable": false,
      "stateMutability": "view",
      "type": "function"
    },
    {
      "constant": true,
      "inputs": [],
      "name": "collateral",
      "outputs": [
        {
          "name": "",
          "type": "uint256"
        }
      ],
      "payable": false,
      "stateMutability": "view",
      "type": "function"
    },
    {
      "inputs": [
        {
          "name": "_n",
          "type": "uint256"
        },
        {
          "name": "_p",
          "type": "uint256"
        },
        {
          "name": "_collateral",
          "type": "uint256"
        },
        {
          "name": "_consumer",
          "type": "address"
        },
        {
          "name": "_provider",
          "type": "address"
        }
      ],
      "payable": true,
      "stateMutability": "payable",
      "type": "constructor"
    },
    {
      "anonymous": false,
      "inputs": [
        {
          "indexed": false,
          "name": "correct",
          "type": "bool"
        }
      ],
      "name": "refund",
      "type": "event"
    },
    {
      "constant": false,
      "inputs": [
        {
          "name": "_MRK",
          "type": "bytes32"
        },
        {
          "name": "_MRC",
          "type": "bytes32"
        }
      ],
      "name": "SetMR",
      "outputs": [],
      "payable": false,
      "stateMutability": "nonpayable",
      "type": "function"
    },
    {
      "constant": false,
      "inputs": [],
      "name": "confirm",
      "outputs": [],
      "payable": false,
      "stateMutability": "nonpayable",
      "type": "function"
    },
    {
      "constant": false,
      "inputs": [
        {
          "name": "_seed",
          "type": "bytes"
        },
        {
          "name": "_nleaves",
          "type": "uint256"
        }
      ],
      "name": "releaseSeed",
      "outputs": [],
      "payable": false,
      "stateMutability": "nonpayable",
      "type": "function"
    },
    {
      "constant": false,
      "inputs": [],
      "name": "conflict",
      "outputs": [],
      "payable": false,
      "stateMutability": "nonpayable",
      "type": "function"
    },
    {
      "constant": false,
      "inputs": [],
      "name": "cleanup",
      "outputs": [],
      "payable": false,
      "stateMutability": "nonpayable",
      "type": "function"
    },
    {
      "constant": false,
      "inputs": [],
      "name": "Withdraw",
      "outputs": [],
      "payable": false,
      "stateMutability": "nonpayable",
      "type": "function"
    },
    {
      "constant": false,
      "inputs": [],
      "name": "Cancel",
      "outputs": [],
      "payable": false,
      "stateMutability": "nonpayable",
      "type": "function"
    }
  ],
  "bytecode": "0x608060408190526009805460ff1916905542600a5560a08061141c833981018060405260a081101561003057600080fd5b50805160208201516040830151606084015160809094015160038054600160a060020a03928316600160a060020a031991821617909155600480549290961691161790935560009190915560015560025561138c806100906000396000f3fe6080604052600436106100fb5763ffffffff7c0100000000000000000000000000000000000000000000000000000000600035041663057ad8598114610100578063085d4883146101275780632e52d6061461015857806332cdfa8a1461016d5780633cecd7191461019f5780634aa8e773146101b457806357ea89b6146101c95780636747401c146101de5780637022b58e146101f35780637884efd01461020857806378ec383a146102bd5780637cb78959146102d25780637d94792a146102e757806394a55547146103715780639ae8886a14610386578063b4fd72961461039b578063c040e6b8146103b0578063d8dfeb45146103e9575b600080fd5b34801561010c57600080fd5b506101156103fe565b60408051918252519081900360200190f35b34801561013357600080fd5b5061013c610404565b60408051600160a060020a039092168252519081900360200190f35b34801561016457600080fd5b50610115610413565b34801561017957600080fd5b5061019d6004803603604081101561019057600080fd5b5080359060200135610419565b005b3480156101ab57600080fd5b5061019d610599565b3480156101c057600080fd5b5061019d6105fe565b3480156101d557600080fd5b5061019d610719565b3480156101ea57600080fd5b50610115610853565b3480156101ff57600080fd5b5061019d610859565b34801561021457600080fd5b5061019d6004803603604081101561022b57600080fd5b81019060208101813564010000000081111561024657600080fd5b82018360208201111561025857600080fd5b8035906020019184600183028401116401000000008311171561027a57600080fd5b91908080601f01602080910402602001604051908101604052809392919081815260200183838082843760009201919091525092955050913592506109cd915050565b3480156102c957600080fd5b50610115610b57565b3480156102de57600080fd5b50610115610b5d565b3480156102f357600080fd5b506102fc610b63565b6040805160208082528351818301528351919283929083019185019080838360005b8381101561033657818101518382015260200161031e565b50505050905090810190601f1680156103635780820380516001836020036101000a031916815260200191505b509250505060405180910390f35b34801561037d57600080fd5b5061019d610bf1565b34801561039257600080fd5b50610115610d7e565b3480156103a757600080fd5b5061013c610d84565b3480156103bc57600080fd5b506103c5610d93565b604051808260048111156103d557fe5b60ff16815260200191505060405180910390f35b3480156103f557600080fd5b50610115610d9c565b60065481565b600354600160a060020a031681565b60005481565b600354600160a060020a0316331461048f576040805160e560020a62461bcd02815260206004820152602560248201527f4f6e6c792070726f76696465722063616e2063616c6c20746869732066756e636044820152600080516020611321833981519152606482015290519081900360840190fd5b600060095460ff1660048111156104a257fe5b1480156104b65750600a546207e900014210155b156104c3576104c3610717565b600160095460ff1660048111156104d657fe5b1480156104ea5750600a546207e900014210155b156104f7576104f7610717565b600360095460ff16600481111561050a57fe5b14801561051e5750600a546207e900014210155b1561052b5761052b610719565b60008060095460ff16600481111561053f57fe5b14610582576040805160e560020a62461bcd0281526020600482015260196024820152600080516020611341833981519152604482015290519081900360640190fd5b60068390556005829055610594610da2565b505050565b60048060095460ff1660048111156105ad57fe5b146105f0576040805160e560020a62461bcd0281526020600482015260196024820152600080516020611341833981519152604482015290519081900360640190fd5b600454600160a060020a0316ff5b600060095460ff16600481111561061157fe5b148061062d5750600160095460ff16600481111561062b57fe5b145b1515610683576040805160e560020a62461bcd02815260206004820152601660248201527f4d75737420626520696e20746861742073746174657300000000000000000000604482015290519081900360640190fd5b600354600160a060020a03163314156106f657600454600054600154600160a060020a03909216916108fc916106b891610de2565b600254019081150290604051600060405180830381858888f193505050501580156106e7573d6000803e3d6000fd5b50600354600160a060020a0316ff5b600454600160a060020a031633141561071757600354600160a060020a0316ff5b565b600354600160a060020a0316331461078f576040805160e560020a62461bcd02815260206004820152602560248201527f4f6e6c792070726f76696465722063616e2063616c6c20746869732066756e636044820152600080516020611321833981519152606482015290519081900360840190fd5b60038060095460ff1660048111156107a357fe5b146107e6576040805160e560020a62461bcd0281526020600482015260196024820152600080516020611341833981519152604482015290519081900360640190fd5b600a546207e90001421015610845576040805160e560020a62461bcd02815260206004820152601360248201527f4d757374207061737320736f6d652074696d6500000000000000000000000000604482015290519081900360640190fd5b600354600160a060020a0316ff5b600a5481565b600454600160a060020a031633146108cf576040805160e560020a62461bcd02815260206004820152602560248201527f4f6e6c7920636f6e73756d65722063616e2063616c6c20746869732066756e636044820152600080516020611321833981519152606482015290519081900360840190fd5b600060095460ff1660048111156108e257fe5b1480156108f65750600a546207e900014210155b1561090357610903610717565b600160095460ff16600481111561091657fe5b14801561092a5750600a546207e900014210155b1561093757610937610717565b600360095460ff16600481111561094a57fe5b14801561095e5750600a546207e900014210155b1561096b5761096b610719565b60018060095460ff16600481111561097f57fe5b146109c2576040805160e560020a62461bcd0281526020600482015260196024820152600080516020611341833981519152604482015290519081900360640190fd5b6109ca610da2565b50565b600354600160a060020a03163314610a43576040805160e560020a62461bcd02815260206004820152602560248201527f4f6e6c792070726f76696465722063616e2063616c6c20746869732066756e636044820152600080516020611321833981519152606482015290519081900360840190fd5b600060095460ff166004811115610a5657fe5b148015610a6a5750600a546207e900014210155b15610a7757610a77610717565b600160095460ff166004811115610a8a57fe5b148015610a9e5750600a546207e900014210155b15610aab57610aab610717565b600360095460ff166004811115610abe57fe5b148015610ad25750600a546207e900014210155b15610adf57610adf610719565b60028060095460ff166004811115610af357fe5b14610b36576040805160e560020a62461bcd0281526020600482015260196024820152600080516020611341833981519152604482015290519081900360640190fd5b8251610b49906007906020860190611270565b506008829055610594610da2565b60055481565b60085481565b6007805460408051602060026001851615610100026000190190941693909304601f81018490048402820184019092528181529291830182828015610be95780601f10610bbe57610100808354040283529160200191610be9565b820191906000526020600020905b815481529060010190602001808311610bcc57829003601f168201915b505050505081565b60038060095460ff166004811115610c0557fe5b14610c48576040805160e560020a62461bcd0281526020600482015260196024820152600080516020611341833981519152604482015290519081900360640190fd5b600060095460ff166004811115610c5b57fe5b148015610c6f5750600a546207e900014210155b15610c7c57610c7c610717565b600160095460ff166004811115610c8f57fe5b148015610ca35750600a546207e900014210155b15610cb057610cb0610717565b600360095460ff166004811115610cc357fe5b148015610cd75750600a546207e900014210155b15610ce457610ce4610719565b6000610cee610e87565b9050600654811415610d3c57604080516000815290517fe57d925a60a251dd9f48fa79e2a670f13c15026fbf6cabbe3f2061726c4d9b1c9181900360200190a1600454600160a060020a0316ff5b604080516001815290517fe57d925a60a251dd9f48fa79e2a670f13c15026fbf6cabbe3f2061726c4d9b1c9181900360200190a1600354600160a060020a0316ff5b60015481565b600454600160a060020a031681565b60095460ff1681565b60025481565b60095460ff166004811115610db357fe5b6001016004811115610dc157fe5b6009805460ff19166001836004811115610dd757fe5b021790555042600a55565b6000821515610df357506000610e81565b828202828482811515610e0257fe5b0414610e7e576040805160e560020a62461bcd02815260206004820152602160248201527f536166654d6174683a206d756c7469706c69636174696f6e206f766572666c6f60448201527f7700000000000000000000000000000000000000000000000000000000000000606482015290519081900360840190fd5b90505b92915050565b60006060600854604051908082528060200260200182016040528015610eb7578160200160208202803883390190505b50905060005b600854811015610f7657806007604051602001808360ff1660ff1660f860020a02815260010182805460018160011615610100020316600290048015610f3a5780601f10610f18576101008083540402835291820191610f3a565b820191906000526020600020905b815481529060010190602001808311610f26575b505092505050604051602081830303815290604052805190602001208282815181101515610f6457fe5b60209081029091010152600101610ebd565b50610f7f6112ee565b610f898251610ffc565b905060005b8251811015610fea57610fe2818483815181101515610fa957fe5b9060200190602002015160405160200180828152602001915050604051602081830303815290604052846110489092919063ffffffff16565b600101610f8e565b50610ff48161106e565b925050505b90565b6110046112ee565b600182101561100f57fe5b81604051908082528060200260200182016040528015611039578160200160208202803883390190505b50815260006020820152919050565b61105181611170565b835180518490811061105f57fe5b60209081029091010152505050565b60208101516000901561107d57fe5b8151515b8060011015611148576002810460005b818110156110fb578451805160028302916110da91839081106110b057fe5b6020908102909101015187518051600185019081106110cb57fe5b906020019060200201516111f4565b86518051849081106110e857fe5b6020908102909101015250600101611091565b5060028206600114156111415783518051600019840190811061111a57fe5b6020908102909101015184518051600184019390811061113657fe5b602090810290910101525b9050611081565b6001602084015282518051600090811061115e57fe5b90602001906020020151915050919050565b6040516000602080830182815284519293849386936021909201918401908083835b602083106111b15780518252601f199092019160209182019101611192565b6001836020036101000a03801982511681845116808217855250505050505090500192505050604051602081830303815290604052805190602001209050919050565b6000818310611231576040805160f860020a6020820152602181018490526041808201869052825180830390910181526061909101909152611261565b6040805160f860020a60208201526021810185905260418082018590528251808303909101815260619091019091525b80519060200120905092915050565b828054600181600116156101000203166002900490600052602060002090601f016020900481019282601f106112b157805160ff19168380011785556112de565b828001600101855582156112de579182015b828111156112de5782518255916020019190600101906112c3565b506112ea929150611306565b5090565b60408051808201909152606081526000602082015290565b610ff991905b808211156112ea576000815560010161130c56fe74696f6e2e0000000000000000000000000000000000000000000000000000004d7573742062652074686520636f727265637420737461676500000000000000a165627a7a7230582021eebbb46df7b68ec049adc50375863c8ffe68d994cbd6547842e052611059640029",
  "source": "pragma solidity ^0.5.0;\nimport \"./MerkleTrees.sol\";\n\n\ncontract Exchangedata {\n\n\nuint256 public n;\nuint256 public p;\nuint256 public collateral;\naddress payable public provider;\naddress payable public consumer;\nbytes32 public MRC;\nbytes32 public MRK;\nbytes public seed;\nuint256 public nleaves;\n\n constructor(uint256 _n, uint256 _p, uint256 _collateral, address payable _consumer, address payable _provider ) payable public {\n    provider = _provider;\n    consumer = _consumer;\n    n = _n;\n    p = _p;\n    collateral = _collateral;\n    //jver que ha pagaod en la factory\n  }\n\n  modifier onlyProvider {\n  require(msg.sender == provider, \"Only provider can call this function.\");\n  _;}\n\n  modifier onlyConsumer {\n  require(msg.sender == consumer, \"Only consumer can call this function.\");\n  _;}\n\nenum Stages {\n        WaitForMR,\n        WaitforConfirm,\n        waitforSeed,\n        WaitforResolution,\n        finish\n    }\nStages public stage = Stages.WaitForMR;\n\nuint public lasttimestamp = now;\n\n\n     event refund(\n        bool correct\n     );\n\n    modifier atStage(Stages _stage) {\n        require(stage == _stage, \"Must be the correct stage\");\n        _;\n    }\n\n    modifier transitionAfter() {\n        _;\n        nextStage();\n    }\n    \n    modifier timedTransitions() {\n        if (stage == Stages.WaitForMR && now >= lasttimestamp + 6 days) {//timepo de bloque\n            Refund(); //revert?\n        }\n        if (stage == Stages.WaitforConfirm && now >= lasttimestamp + 6 days) {\n            Refund();\n        }\n        if (stage == Stages.WaitforResolution && now >= lasttimestamp + 6 days) {\n            Withdraw();//??? es una transacción, esto esta bien?\n        }\n        _;\n    }\n\n    function SetMR(bytes32 _MRK, bytes32 _MRC) public onlyProvider timedTransitions atStage(Stages.WaitForMR)  transitionAfter{\n      MRK = _MRK;\n      MRC = _MRC;\n    }\n\n    function confirm() public onlyConsumer timedTransitions atStage(Stages.WaitforConfirm) transitionAfter {\n      //y ya esstá no?\n    }\n\n    function releaseSeed(bytes memory _seed, uint256 _nleaves) public onlyProvider timedTransitions\n    atStage(Stages.waitforSeed) transitionAfter {//transition after?¿\n      seed = _seed;\n      nleaves = _nleaves;\n    }\n\n    function conflict()public atStage(Stages.WaitforResolution) timedTransitions transitionAfter{\n      //pasa las seeds:\n\n      bytes32 seedroot = computeRoot();\n\n      if(seedroot==MRK){\n         emit refund(false);\n         selfdestruct(consumer);\n      }\n      else\n        emit refund(true);\n        selfdestruct(provider);\n      //tengo que comproar la seed es correcta con la markle prrof de las keys, =?¿?¿?¿?¿?¿?¿?¿?¿?¿?¿?¿?¿? semilla+i hash ( me salen 10 claves)\n    }\n\n    function cleanup() public atStage(Stages.finish) {\n        selfdestruct(consumer);//la addres se llevará todo el ether, provider o consumer?\n    }\n    \n    function Withdraw() public onlyProvider atStage(Stages.WaitforResolution) {\n       require(now >= lasttimestamp + 6 days, \"Must pass some time\");\n\n       //provider.transfer(mul(n,p)); //some ether  address(this).balance\n       selfdestruct(provider);//??\n     }\n\n    function Cancel() public {\n       require(stage == Stages.WaitForMR || stage == Stages.WaitforConfirm, \"Must be in that states\");\n       if(msg.sender == provider)\n       {\n       consumer.transfer(collateral+mul(n,p));\n       selfdestruct(provider);//??\n       }\n       if(msg.sender == consumer)\n       {\n       selfdestruct(provider);\n       }\n     }\n\n    function nextStage() internal {\n        stage = Stages(uint(stage) + 1);\n        lasttimestamp = now;\n    }\n\n    function Refund() internal {\n        \n    }\n\n\n//save math\n    function add(uint256 a, uint256 b) internal pure returns (uint256) {\n        uint256 c = a + b;\n        require(c >= a, \"SafeMath: addition overflow\");\n\n        return c;\n    }\n    function sub(uint256 a, uint256 b) internal pure returns (uint256) {\n        require(b <= a, \"SafeMath: subtraction overflow\");\n        uint256 c = a - b;\n\n        return c;\n    }\n    function mul(uint256 a, uint256 b) internal pure returns (uint256) {\n        // Gas optimization: this is cheaper than requiring 'a' not being zero, but the\n        // benefit is lost if 'b' is also tested.\n        // See: https://github.com/OpenZeppelin/openzeppelin-solidity/pull/52\n        if (a == 0) {\n            return 0;\n        }\n\n        uint256 c = a * b;\n        require(c / a == b, \"SafeMath: multiplication overflow\");\n\n        return c;\n    }\n    function div(uint256 a, uint256 b) internal pure returns (uint256) {\n        // Solidity only automatically asserts when dividing by 0\n        require(b > 0, \"SafeMath: division by zero\");\n        uint256 c = a / b;\n        // assert(a == b * c + a % b); // There is no case in which this doesn't hold\n\n        return c;\n    }\n//createmerkle tree\n    using MerkleTrees for MerkleTrees.Tree;\n\n    function computeRoot() internal returns (bytes32)\n    {\n        bytes32[] memory leaves = new bytes32[](nleaves);\n\n        for (uint256 i = 0; i < nleaves; i++){\n            leaves[i] = keccak256(abi.encodePacked(uint8(i),seed));\n        }\n        MerkleTrees.Tree memory tree = MerkleTrees.newTree(leaves.length);\n        for (uint256 i = 0; i < leaves.length; i++) {\n            tree.setLeafDataBlock(i, abi.encodePacked(leaves[i]));\n        }\n        return tree.computeRoot();\n    }\n}",
  "sourcePath": "/home/jesus/Escritorio/tfg SC/contracts/Exchangedata.sol",
  "compiler": {
    "name": "solc",
    "version": "0.5.0+commit.1d4f565a.Emscripten.clang"
  },
  "schemaVersion": "3.0.9",
  "updatedAt": "2019-09-06T17:49:13.679Z",
  "devdoc": {
    "methods": {}
  },
  "userdoc": {
    "methods": {}
  }
}