{
  "contractName": "Factory",
  "abi": [
    {
      "constant": true,
      "inputs": [],
      "name": "provider",
      "outputs": [
        {
          "name": "",
          "type": "address"
        }
      ],
      "payable": false,
      "stateMutability": "view",
      "type": "function"
    },
    {
      "constant": true,
      "inputs": [],
      "name": "n",
      "outputs": [
        {
          "name": "",
          "type": "uint256"
        }
      ],
      "payable": false,
      "stateMutability": "view",
      "type": "function"
    },
    {
      "constant": true,
      "inputs": [],
      "name": "exchangesCounter",
      "outputs": [
        {
          "name": "",
          "type": "uint256"
        }
      ],
      "payable": false,
      "stateMutability": "view",
      "type": "function"
    },
    {
      "constant": true,
      "inputs": [
        {
          "name": "",
          "type": "uint256"
        }
      ],
      "name": "exchangedatas",
      "outputs": [
        {
          "name": "",
          "type": "address"
        }
      ],
      "payable": false,
      "stateMutability": "view",
      "type": "function"
    },
    {
      "constant": true,
      "inputs": [],
      "name": "p",
      "outputs": [
        {
          "name": "",
          "type": "uint256"
        }
      ],
      "payable": false,
      "stateMutability": "view",
      "type": "function"
    },
    {
      "constant": true,
      "inputs": [],
      "name": "collateral",
      "outputs": [
        {
          "name": "",
          "type": "uint256"
        }
      ],
      "payable": false,
      "stateMutability": "view",
      "type": "function"
    },
    {
      "inputs": [
        {
          "name": "_n",
          "type": "uint256"
        },
        {
          "name": "_p",
          "type": "uint256"
        },
        {
          "name": "_collateral",
          "type": "uint256"
        }
      ],
      "payable": true,
      "stateMutability": "payable",
      "type": "constructor"
    },
    {
      "payable": true,
      "stateMutability": "payable",
      "type": "fallback"
    },
    {
      "anonymous": false,
      "inputs": [
        {
          "indexed": false,
          "name": "exchangedata",
          "type": "address"
        }
      ],
      "name": "SCcreated",
      "type": "event"
    },
    {
      "constant": false,
      "inputs": [],
      "name": "createChildContract",
      "outputs": [],
      "payable": true,
      "stateMutability": "payable",
      "type": "function"
    },
    {
      "constant": false,
      "inputs": [],
      "name": "finish",
      "outputs": [],
      "payable": false,
      "stateMutability": "nonpayable",
      "type": "function"
    }
  ],
  "bytecode": "0x608060405260405160608061198f8339810180604052606081101561002357600080fd5b5080516020820151604090920151909190348111156100c957604080517f08c379a000000000000000000000000000000000000000000000000000000000815260206004820152602a60248201527f4d757374206265206d6f7265206f7220657175616c207468616e20746865206360448201527f6f6c6c61746572616c2e00000000000000000000000000000000000000000000606482015290519081900360840190fd5b60029290925560035560045560058054600160a060020a03191633179055611899806100f66000396000f3fe60806040526004361061008d5763ffffffff7c0100000000000000000000000000000000000000000000000000000000600035041663085d4883811461008f5780632e52d606146100c05780633ba04360146100e75780633c63c905146100fc5780638a33c3d9146101265780639ae8886a1461012e578063d56b288914610143578063d8dfeb4514610158575b005b34801561009b57600080fd5b506100a461016d565b60408051600160a060020a039092168252519081900360200190f35b3480156100cc57600080fd5b506100d561017c565b60408051918252519081900360200190f35b3480156100f357600080fd5b506100d5610182565b34801561010857600080fd5b506100a46004803603602081101561011f57600080fd5b5035610188565b61008d6101a3565b34801561013a57600080fd5b506100d56103e7565b34801561014f57600080fd5b5061008d6103ed565b34801561016457600080fd5b506100d561049a565b600554600160a060020a031681565b60025481565b60005481565b600160205260009081526040902054600160a060020a031681565b6004546003540134101561023e57604080517f08c379a000000000000000000000000000000000000000000000000000000000815260206004820152603260248201527f4d757374206265206d6f7265206f7220657175616c207468616e20746865207060448201527f72696365202b20636f6c6c61746572616c2e0000000000000000000000000000606482015290519081900360840190fd5b6004543031116102af57604080517f08c379a000000000000000000000000000000000000000000000000000000000815260206004820152601f60248201527f50726f7669646572206d7573742070617920636f6c6c61746572616c20746f00604482015290519081900360640190fd5b6000805460010190556002546003546004546005543390600160a060020a03166102d76104a0565b9485526020850193909352604080850192909252600160a060020a039081166060850152919091166080830152519081900360a001906000f080158015610322573d6000803e3d6000fd5b5060008054815260016020526040808220805473ffffffffffffffffffffffffffffffffffffffff1916600160a060020a03948516179055815482528082205460045491519316926108fc3490920180159290920292818181858888f19350505050158015610395573d6000803e3d6000fd5b5060008054815260016020908152604091829020548251600160a060020a03909116815291517fff175ef925b5748404b3bc004b326e5b53fcd4fee79e2d3d111a32ce0f8f0ebc9281900390910190a1565b60035481565b600554600160a060020a0316331461048c57604080517f08c379a000000000000000000000000000000000000000000000000000000000815260206004820152602b60248201527f4d757374206265207468652070726f766964657220746f2066696e697368207460448201527f686520636f6e7472616374000000000000000000000000000000000000000000606482015290519081900360840190fd5b600554600160a060020a0316ff5b60045481565b6040516113bd806104b18339019056fe608060408190526009805460ff1916905542600a5560a0806113bd833981018060405260a081101561003057600080fd5b50805160208201516040830151606084015160809094015160038054600160a060020a03928316600160a060020a031991821617909155600480549290961691161790935560009190915560015560025561132d806100906000396000f3fe6080604052600436106100fb5763ffffffff7c0100000000000000000000000000000000000000000000000000000000600035041663057ad85981146100fd578063085d4883146101245780632e52d6061461015557806332cdfa8a1461016a5780633cecd7191461019a5780634aa8e773146101af57806357ea89b6146101c45780636747401c146101d95780637022b58e146101ee5780637884efd01461020357806378ec383a146102b85780637cb78959146102cd5780637d94792a146102e257806394a555471461036c5780639ae8886a14610381578063b4fd729614610396578063c040e6b8146103ab578063d8dfeb45146103e4575b005b34801561010957600080fd5b506101126103f9565b60408051918252519081900360200190f35b34801561013057600080fd5b506101396103ff565b60408051600160a060020a039092168252519081900360200190f35b34801561016157600080fd5b5061011261040e565b34801561017657600080fd5b506100fb6004803603604081101561018d57600080fd5b5080359060200135610414565b3480156101a657600080fd5b506100fb610594565b3480156101bb57600080fd5b506100fb6105f9565b3480156101d057600080fd5b506100fb610722565b3480156101e557600080fd5b5061011261085c565b3480156101fa57600080fd5b506100fb610862565b34801561020f57600080fd5b506100fb6004803603604081101561022657600080fd5b81019060208101813564010000000081111561024157600080fd5b82018360208201111561025357600080fd5b8035906020019184600183028401116401000000008311171561027557600080fd5b91908080601f01602080910402602001604051908101604052809392919081815260200183838082843760009201919091525092955050913592506109d6915050565b3480156102c457600080fd5b50610112610b60565b3480156102d957600080fd5b50610112610b66565b3480156102ee57600080fd5b506102f7610b6c565b6040805160208082528351818301528351919283929083019185019080838360005b83811015610331578181015183820152602001610319565b50505050905090810190601f16801561035e5780820380516001836020036101000a031916815260200191505b509250505060405180910390f35b34801561037857600080fd5b506100fb610bfa565b34801561038d57600080fd5b50610112610dc4565b3480156103a257600080fd5b50610139610dca565b3480156103b757600080fd5b506103c0610dd9565b604051808260048111156103d057fe5b60ff16815260200191505060405180910390f35b3480156103f057600080fd5b50610112610de2565b60065481565b600354600160a060020a031681565b60005481565b600354600160a060020a0316331461048a576040805160e560020a62461bcd02815260206004820152602560248201527f4f6e6c792070726f76696465722063616e2063616c6c20746869732066756e6360448201526000805160206112c2833981519152606482015290519081900360840190fd5b600060095460ff16600481111561049d57fe5b1480156104b15750600a546207e900014210155b156104be576104be6105eb565b600160095460ff1660048111156104d157fe5b1480156104e55750600a546207e900014210155b156104f2576104f26105eb565b600360095460ff16600481111561050557fe5b1480156105195750600a546207e900014210155b1561052657610526610722565b60008060095460ff16600481111561053a57fe5b1461057d576040805160e560020a62461bcd02815260206004820152601960248201526000805160206112e2833981519152604482015290519081900360640190fd5b6006839055600582905561058f610de8565b505050565b60048060095460ff1660048111156105a857fe5b146105eb576040805160e560020a62461bcd02815260206004820152601960248201526000805160206112e2833981519152604482015290519081900360640190fd5b600454600160a060020a0316ff5b600060095460ff16600481111561060c57fe5b14806106285750600160095460ff16600481111561062657fe5b145b151561067e576040805160e560020a62461bcd02815260206004820152601660248201527f4d75737420626520696e20746861742073746174657300000000000000000000604482015290519081900360640190fd5b600354600160a060020a03163314156106d157600454600154604051600160a060020a039092169181156108fc0291906000818181858888f193505050501580156106cd573d6000803e3d6000fd5b5030ff5b600454600160a060020a031633141561072057600454600154604051600160a060020a039092169181156108fc0291906000818181858888f193505050501580156106cd573d6000803e3d6000fd5b565b600354600160a060020a03163314610798576040805160e560020a62461bcd02815260206004820152602560248201527f4f6e6c792070726f76696465722063616e2063616c6c20746869732066756e6360448201526000805160206112c2833981519152606482015290519081900360840190fd5b60038060095460ff1660048111156107ac57fe5b146107ef576040805160e560020a62461bcd02815260206004820152601960248201526000805160206112e2833981519152604482015290519081900360640190fd5b600a546207e9000142101561084e576040805160e560020a62461bcd02815260206004820152601360248201527f4d757374207061737320736f6d652074696d6500000000000000000000000000604482015290519081900360640190fd5b600354600160a060020a0316ff5b600a5481565b600454600160a060020a031633146108d8576040805160e560020a62461bcd02815260206004820152602560248201527f4f6e6c7920636f6e73756d65722063616e2063616c6c20746869732066756e6360448201526000805160206112c2833981519152606482015290519081900360840190fd5b600060095460ff1660048111156108eb57fe5b1480156108ff5750600a546207e900014210155b1561090c5761090c6105eb565b600160095460ff16600481111561091f57fe5b1480156109335750600a546207e900014210155b15610940576109406105eb565b600360095460ff16600481111561095357fe5b1480156109675750600a546207e900014210155b1561097457610974610722565b60018060095460ff16600481111561098857fe5b146109cb576040805160e560020a62461bcd02815260206004820152601960248201526000805160206112e2833981519152604482015290519081900360640190fd5b6109d3610de8565b50565b600354600160a060020a03163314610a4c576040805160e560020a62461bcd02815260206004820152602560248201527f4f6e6c792070726f76696465722063616e2063616c6c20746869732066756e6360448201526000805160206112c2833981519152606482015290519081900360840190fd5b600060095460ff166004811115610a5f57fe5b148015610a735750600a546207e900014210155b15610a8057610a806105eb565b600160095460ff166004811115610a9357fe5b148015610aa75750600a546207e900014210155b15610ab457610ab46105eb565b600360095460ff166004811115610ac757fe5b148015610adb5750600a546207e900014210155b15610ae857610ae8610722565b60028060095460ff166004811115610afc57fe5b14610b3f576040805160e560020a62461bcd02815260206004820152601960248201526000805160206112e2833981519152604482015290519081900360640190fd5b8251610b52906007906020860190611211565b50600882905561058f610de8565b60055481565b60085481565b6007805460408051602060026001851615610100026000190190941693909304601f81018490048402820184019092528181529291830182828015610bf25780601f10610bc757610100808354040283529160200191610bf2565b820191906000526020600020905b815481529060010190602001808311610bd557829003601f168201915b505050505081565b60038060095460ff166004811115610c0e57fe5b14610c51576040805160e560020a62461bcd02815260206004820152601960248201526000805160206112e2833981519152604482015290519081900360640190fd5b600060095460ff166004811115610c6457fe5b148015610c785750600a546207e900014210155b15610c8557610c856105eb565b600160095460ff166004811115610c9857fe5b148015610cac5750600a546207e900014210155b15610cb957610cb96105eb565b600360095460ff166004811115610ccc57fe5b148015610ce05750600a546207e900014210155b15610ced57610ced610722565b6000610cf7610e28565b9050600654811415610d8257604080516000815290517fe57d925a60a251dd9f48fa79e2a670f13c15026fbf6cabbe3f2061726c4d9b1c9181900360200190a1600454600254604051600160a060020a039092169181156108fc0291906000818181858888f19350505050158015610d73573d6000803e3d6000fd5b50600354600160a060020a0316ff5b604080516001815290517fe57d925a60a251dd9f48fa79e2a670f13c15026fbf6cabbe3f2061726c4d9b1c9181900360200190a1600454600160a060020a0316ff5b60015481565b600454600160a060020a031681565b60095460ff1681565b60025481565b60095460ff166004811115610df957fe5b6001016004811115610e0757fe5b6009805460ff19166001836004811115610e1d57fe5b021790555042600a55565b60006060600854604051908082528060200260200182016040528015610e58578160200160208202803883390190505b50905060005b600854811015610f1757806007604051602001808360ff1660ff1660f860020a02815260010182805460018160011615610100020316600290048015610edb5780601f10610eb9576101008083540402835291820191610edb565b820191906000526020600020905b815481529060010190602001808311610ec7575b505092505050604051602081830303815290604052805190602001208282815181101515610f0557fe5b60209081029091010152600101610e5e565b50610f2061128f565b610f2a8251610f9d565b905060005b8251811015610f8b57610f83818483815181101515610f4a57fe5b906020019060200201516040516020018082815260200191505060405160208183030381529060405284610fe99092919063ffffffff16565b600101610f2f565b50610f958161100f565b925050505b90565b610fa561128f565b6001821015610fb057fe5b81604051908082528060200260200182016040528015610fda578160200160208202803883390190505b50815260006020820152919050565b610ff281611111565b835180518490811061100057fe5b60209081029091010152505050565b60208101516000901561101e57fe5b8151515b80600110156110e9576002810460005b8181101561109c5784518051600283029161107b918390811061105157fe5b60209081029091010151875180516001850190811061106c57fe5b90602001906020020151611195565b865180518490811061108957fe5b6020908102909101015250600101611032565b5060028206600114156110e2578351805160001984019081106110bb57fe5b602090810290910101518451805160018401939081106110d757fe5b602090810290910101525b9050611022565b600160208401528251805160009081106110ff57fe5b90602001906020020151915050919050565b6040516000602080830182815284519293849386936021909201918401908083835b602083106111525780518252601f199092019160209182019101611133565b6001836020036101000a03801982511681845116808217855250505050505090500192505050604051602081830303815290604052805190602001209050919050565b60008183106111d2576040805160f860020a6020820152602181018490526041808201869052825180830390910181526061909101909152611202565b6040805160f860020a60208201526021810185905260418082018590528251808303909101815260619091019091525b80519060200120905092915050565b828054600181600116156101000203166002900490600052602060002090601f016020900481019282601f1061125257805160ff191683800117855561127f565b8280016001018555821561127f579182015b8281111561127f578251825591602001919060010190611264565b5061128b9291506112a7565b5090565b60408051808201909152606081526000602082015290565b610f9a91905b8082111561128b57600081556001016112ad56fe74696f6e2e0000000000000000000000000000000000000000000000000000004d7573742062652074686520636f727265637420737461676500000000000000a165627a7a72305820c92dafb114d1e718a1ab3842affd6822006d88d6c5686647836c3365981df31e0029a165627a7a723058207ce6c9cd72f0d6a532ed3a6d641a735109af592b00030cdcbb272b876fb6ce7f0029",
  "source": "pragma solidity ^0.5.0;\nimport \"./Exchangedata.sol\";\n\ncontract Factory {\n\n    uint256 public exchangesCounter;\n\n    mapping(uint256 => Exchangedata) public exchangedatas;\n\n    uint256 public n;\n    uint256 public p;\n    uint256 public collateral;\n    address payable public provider;\n\n//     constructor() payable public {\n//         provider = msg.sender;\n//   }\n\n      constructor(uint256 _n, uint256 _p, uint256 _collateral) payable public {\n        require(msg.value >= _collateral, \"Must be more or equal than the collateral.\");\n        n = _n;\n        p = _p;\n        collateral = _collateral;\n        provider = msg.sender;\n     }\n\n     event SCcreated(\n        Exchangedata exchangedata\n     );\n\n\n   function createChildContract() public payable{\n      // insert check if the sent ether is enough to cover the SC ...\n      require(msg.value >= (p+collateral), \"Must be more or equal than the price + collateral.\");\n      require(address(this).balance > collateral, \"Provider must pay collateral to\");\n      exchangesCounter ++;\n      exchangedatas[exchangesCounter] = new Exchangedata(n, p, collateral, msg.sender, provider);\n      address(exchangedatas[exchangesCounter]).transfer(msg.value+collateral);\n      emit SCcreated(exchangedatas[exchangesCounter]);\n   }\n\n   function() external payable {} //fallback\n\n   function finish() external{\n      require (msg.sender == provider, \"Must be the provider to finish the contract\");\n      selfdestruct(provider);\n   }\n}",
  "sourcePath": "/home/jesus/Escritorio/tfg SC/contracts/Factory.sol",
  "compiler": {
    "name": "solc",
    "version": "0.5.0+commit.1d4f565a.Emscripten.clang"
  },
  "schemaVersion": "3.0.9",
  "updatedAt": "2019-09-12T11:23:54.267Z",
  "devdoc": {
    "methods": {}
  },
  "userdoc": {
    "methods": {}
  }
}