{
  "contractName": "Factory",
  "abi": [
    {
      "constant": true,
      "inputs": [],
      "name": "provider",
      "outputs": [
        {
          "name": "",
          "type": "address"
        }
      ],
      "payable": false,
      "stateMutability": "view",
      "type": "function"
    },
    {
      "constant": true,
      "inputs": [],
      "name": "n",
      "outputs": [
        {
          "name": "",
          "type": "uint256"
        }
      ],
      "payable": false,
      "stateMutability": "view",
      "type": "function"
    },
    {
      "constant": true,
      "inputs": [],
      "name": "exchangesCounter",
      "outputs": [
        {
          "name": "",
          "type": "uint256"
        }
      ],
      "payable": false,
      "stateMutability": "view",
      "type": "function"
    },
    {
      "constant": true,
      "inputs": [
        {
          "name": "",
          "type": "uint256"
        }
      ],
      "name": "exchangedatas",
      "outputs": [
        {
          "name": "",
          "type": "address"
        }
      ],
      "payable": false,
      "stateMutability": "view",
      "type": "function"
    },
    {
      "constant": true,
      "inputs": [],
      "name": "p",
      "outputs": [
        {
          "name": "",
          "type": "uint256"
        }
      ],
      "payable": false,
      "stateMutability": "view",
      "type": "function"
    },
    {
      "constant": true,
      "inputs": [],
      "name": "collateral",
      "outputs": [
        {
          "name": "",
          "type": "uint256"
        }
      ],
      "payable": false,
      "stateMutability": "view",
      "type": "function"
    },
    {
      "inputs": [
        {
          "name": "_n",
          "type": "uint256"
        },
        {
          "name": "_p",
          "type": "uint256"
        },
        {
          "name": "_collateral",
          "type": "uint256"
        }
      ],
      "payable": true,
      "stateMutability": "payable",
      "type": "constructor"
    },
    {
      "anonymous": false,
      "inputs": [
        {
          "indexed": false,
          "name": "exchangedata",
          "type": "address"
        }
      ],
      "name": "SCcreated",
      "type": "event"
    },
    {
      "constant": false,
      "inputs": [],
      "name": "createChildContract",
      "outputs": [],
      "payable": true,
      "stateMutability": "payable",
      "type": "function"
    }
  ],
  "bytecode": "0x60806040526040516060806117858339810180604052606081101561002357600080fd5b508051602082015160409092015160029190915560039190915560045560058054600160a060020a03191633179055611724806100616000396000f3fe6080604052600436106100825763ffffffff7c0100000000000000000000000000000000000000000000000000000000600035041663085d488381146100875780632e52d606146100c55780633ba04360146100ec5780633c63c905146101015780638a33c3d91461012b5780639ae8886a14610135578063d8dfeb451461014a575b600080fd5b34801561009357600080fd5b5061009c61015f565b6040805173ffffffffffffffffffffffffffffffffffffffff9092168252519081900360200190f35b3480156100d157600080fd5b506100da61017b565b60408051918252519081900360200190f35b3480156100f857600080fd5b506100da610181565b34801561010d57600080fd5b5061009c6004803603602081101561012457600080fd5b5035610187565b6101336101af565b005b34801561014157600080fd5b506100da6102c0565b34801561015657600080fd5b506100da6102c6565b60055473ffffffffffffffffffffffffffffffffffffffff1681565b60025481565b60005481565b60016020526000908152604090205473ffffffffffffffffffffffffffffffffffffffff1681565b600080546001019055600254600354600454600554339073ffffffffffffffffffffffffffffffffffffffff166101e46102cc565b948552602085019390935260408085019290925273ffffffffffffffffffffffffffffffffffffffff9081166060850152919091166080830152519081900360a001906000f08015801561023c573d6000803e3d6000fd5b50600080548152600160209081526040808320805473ffffffffffffffffffffffffffffffffffffffff191673ffffffffffffffffffffffffffffffffffffffff95861617905582548352918290205482519316835290517fff175ef925b5748404b3bc004b326e5b53fcd4fee79e2d3d111a32ce0f8f0ebc9281900390910190a1565b60035481565b60045481565b60405161141c806102dd8339019056fe608060408190526009805460ff1916905542600a5560a08061141c833981018060405260a081101561003057600080fd5b50805160208201516040830151606084015160809094015160038054600160a060020a03928316600160a060020a031991821617909155600480549290961691161790935560009190915560015560025561138c806100906000396000f3fe6080604052600436106100fb5763ffffffff7c0100000000000000000000000000000000000000000000000000000000600035041663057ad8598114610100578063085d4883146101275780632e52d6061461015857806332cdfa8a1461016d5780633cecd7191461019f5780634aa8e773146101b457806357ea89b6146101c95780636747401c146101de5780637022b58e146101f35780637884efd01461020857806378ec383a146102bd5780637cb78959146102d25780637d94792a146102e757806394a55547146103715780639ae8886a14610386578063b4fd72961461039b578063c040e6b8146103b0578063d8dfeb45146103e9575b600080fd5b34801561010c57600080fd5b506101156103fe565b60408051918252519081900360200190f35b34801561013357600080fd5b5061013c610404565b60408051600160a060020a039092168252519081900360200190f35b34801561016457600080fd5b50610115610413565b34801561017957600080fd5b5061019d6004803603604081101561019057600080fd5b5080359060200135610419565b005b3480156101ab57600080fd5b5061019d610599565b3480156101c057600080fd5b5061019d6105fe565b3480156101d557600080fd5b5061019d610719565b3480156101ea57600080fd5b50610115610853565b3480156101ff57600080fd5b5061019d610859565b34801561021457600080fd5b5061019d6004803603604081101561022b57600080fd5b81019060208101813564010000000081111561024657600080fd5b82018360208201111561025857600080fd5b8035906020019184600183028401116401000000008311171561027a57600080fd5b91908080601f01602080910402602001604051908101604052809392919081815260200183838082843760009201919091525092955050913592506109cd915050565b3480156102c957600080fd5b50610115610b57565b3480156102de57600080fd5b50610115610b5d565b3480156102f357600080fd5b506102fc610b63565b6040805160208082528351818301528351919283929083019185019080838360005b8381101561033657818101518382015260200161031e565b50505050905090810190601f1680156103635780820380516001836020036101000a031916815260200191505b509250505060405180910390f35b34801561037d57600080fd5b5061019d610bf1565b34801561039257600080fd5b50610115610d7e565b3480156103a757600080fd5b5061013c610d84565b3480156103bc57600080fd5b506103c5610d93565b604051808260048111156103d557fe5b60ff16815260200191505060405180910390f35b3480156103f557600080fd5b50610115610d9c565b60065481565b600354600160a060020a031681565b60005481565b600354600160a060020a0316331461048f576040805160e560020a62461bcd02815260206004820152602560248201527f4f6e6c792070726f76696465722063616e2063616c6c20746869732066756e636044820152600080516020611321833981519152606482015290519081900360840190fd5b600060095460ff1660048111156104a257fe5b1480156104b65750600a546207e900014210155b156104c3576104c3610717565b600160095460ff1660048111156104d657fe5b1480156104ea5750600a546207e900014210155b156104f7576104f7610717565b600360095460ff16600481111561050a57fe5b14801561051e5750600a546207e900014210155b1561052b5761052b610719565b60008060095460ff16600481111561053f57fe5b14610582576040805160e560020a62461bcd0281526020600482015260196024820152600080516020611341833981519152604482015290519081900360640190fd5b60068390556005829055610594610da2565b505050565b60048060095460ff1660048111156105ad57fe5b146105f0576040805160e560020a62461bcd0281526020600482015260196024820152600080516020611341833981519152604482015290519081900360640190fd5b600454600160a060020a0316ff5b600060095460ff16600481111561061157fe5b148061062d5750600160095460ff16600481111561062b57fe5b145b1515610683576040805160e560020a62461bcd02815260206004820152601660248201527f4d75737420626520696e20746861742073746174657300000000000000000000604482015290519081900360640190fd5b600354600160a060020a03163314156106f657600454600054600154600160a060020a03909216916108fc916106b891610de2565b600254019081150290604051600060405180830381858888f193505050501580156106e7573d6000803e3d6000fd5b50600354600160a060020a0316ff5b600454600160a060020a031633141561071757600354600160a060020a0316ff5b565b600354600160a060020a0316331461078f576040805160e560020a62461bcd02815260206004820152602560248201527f4f6e6c792070726f76696465722063616e2063616c6c20746869732066756e636044820152600080516020611321833981519152606482015290519081900360840190fd5b60038060095460ff1660048111156107a357fe5b146107e6576040805160e560020a62461bcd0281526020600482015260196024820152600080516020611341833981519152604482015290519081900360640190fd5b600a546207e90001421015610845576040805160e560020a62461bcd02815260206004820152601360248201527f4d757374207061737320736f6d652074696d6500000000000000000000000000604482015290519081900360640190fd5b600354600160a060020a0316ff5b600a5481565b600454600160a060020a031633146108cf576040805160e560020a62461bcd02815260206004820152602560248201527f4f6e6c7920636f6e73756d65722063616e2063616c6c20746869732066756e636044820152600080516020611321833981519152606482015290519081900360840190fd5b600060095460ff1660048111156108e257fe5b1480156108f65750600a546207e900014210155b1561090357610903610717565b600160095460ff16600481111561091657fe5b14801561092a5750600a546207e900014210155b1561093757610937610717565b600360095460ff16600481111561094a57fe5b14801561095e5750600a546207e900014210155b1561096b5761096b610719565b60018060095460ff16600481111561097f57fe5b146109c2576040805160e560020a62461bcd0281526020600482015260196024820152600080516020611341833981519152604482015290519081900360640190fd5b6109ca610da2565b50565b600354600160a060020a03163314610a43576040805160e560020a62461bcd02815260206004820152602560248201527f4f6e6c792070726f76696465722063616e2063616c6c20746869732066756e636044820152600080516020611321833981519152606482015290519081900360840190fd5b600060095460ff166004811115610a5657fe5b148015610a6a5750600a546207e900014210155b15610a7757610a77610717565b600160095460ff166004811115610a8a57fe5b148015610a9e5750600a546207e900014210155b15610aab57610aab610717565b600360095460ff166004811115610abe57fe5b148015610ad25750600a546207e900014210155b15610adf57610adf610719565b60028060095460ff166004811115610af357fe5b14610b36576040805160e560020a62461bcd0281526020600482015260196024820152600080516020611341833981519152604482015290519081900360640190fd5b8251610b49906007906020860190611270565b506008829055610594610da2565b60055481565b60085481565b6007805460408051602060026001851615610100026000190190941693909304601f81018490048402820184019092528181529291830182828015610be95780601f10610bbe57610100808354040283529160200191610be9565b820191906000526020600020905b815481529060010190602001808311610bcc57829003601f168201915b505050505081565b60038060095460ff166004811115610c0557fe5b14610c48576040805160e560020a62461bcd0281526020600482015260196024820152600080516020611341833981519152604482015290519081900360640190fd5b600060095460ff166004811115610c5b57fe5b148015610c6f5750600a546207e900014210155b15610c7c57610c7c610717565b600160095460ff166004811115610c8f57fe5b148015610ca35750600a546207e900014210155b15610cb057610cb0610717565b600360095460ff166004811115610cc357fe5b148015610cd75750600a546207e900014210155b15610ce457610ce4610719565b6000610cee610e87565b9050600654811415610d3c57604080516000815290517fe57d925a60a251dd9f48fa79e2a670f13c15026fbf6cabbe3f2061726c4d9b1c9181900360200190a1600454600160a060020a0316ff5b604080516001815290517fe57d925a60a251dd9f48fa79e2a670f13c15026fbf6cabbe3f2061726c4d9b1c9181900360200190a1600354600160a060020a0316ff5b60015481565b600454600160a060020a031681565b60095460ff1681565b60025481565b60095460ff166004811115610db357fe5b6001016004811115610dc157fe5b6009805460ff19166001836004811115610dd757fe5b021790555042600a55565b6000821515610df357506000610e81565b828202828482811515610e0257fe5b0414610e7e576040805160e560020a62461bcd02815260206004820152602160248201527f536166654d6174683a206d756c7469706c69636174696f6e206f766572666c6f60448201527f7700000000000000000000000000000000000000000000000000000000000000606482015290519081900360840190fd5b90505b92915050565b60006060600854604051908082528060200260200182016040528015610eb7578160200160208202803883390190505b50905060005b600854811015610f7657806007604051602001808360ff1660ff1660f860020a02815260010182805460018160011615610100020316600290048015610f3a5780601f10610f18576101008083540402835291820191610f3a565b820191906000526020600020905b815481529060010190602001808311610f26575b505092505050604051602081830303815290604052805190602001208282815181101515610f6457fe5b60209081029091010152600101610ebd565b50610f7f6112ee565b610f898251610ffc565b905060005b8251811015610fea57610fe2818483815181101515610fa957fe5b9060200190602002015160405160200180828152602001915050604051602081830303815290604052846110489092919063ffffffff16565b600101610f8e565b50610ff48161106e565b925050505b90565b6110046112ee565b600182101561100f57fe5b81604051908082528060200260200182016040528015611039578160200160208202803883390190505b50815260006020820152919050565b61105181611170565b835180518490811061105f57fe5b60209081029091010152505050565b60208101516000901561107d57fe5b8151515b8060011015611148576002810460005b818110156110fb578451805160028302916110da91839081106110b057fe5b6020908102909101015187518051600185019081106110cb57fe5b906020019060200201516111f4565b86518051849081106110e857fe5b6020908102909101015250600101611091565b5060028206600114156111415783518051600019840190811061111a57fe5b6020908102909101015184518051600184019390811061113657fe5b602090810290910101525b9050611081565b6001602084015282518051600090811061115e57fe5b90602001906020020151915050919050565b6040516000602080830182815284519293849386936021909201918401908083835b602083106111b15780518252601f199092019160209182019101611192565b6001836020036101000a03801982511681845116808217855250505050505090500192505050604051602081830303815290604052805190602001209050919050565b6000818310611231576040805160f860020a6020820152602181018490526041808201869052825180830390910181526061909101909152611261565b6040805160f860020a60208201526021810185905260418082018590528251808303909101815260619091019091525b80519060200120905092915050565b828054600181600116156101000203166002900490600052602060002090601f016020900481019282601f106112b157805160ff19168380011785556112de565b828001600101855582156112de579182015b828111156112de5782518255916020019190600101906112c3565b506112ea929150611306565b5090565b60408051808201909152606081526000602082015290565b610ff991905b808211156112ea576000815560010161130c56fe74696f6e2e0000000000000000000000000000000000000000000000000000004d7573742062652074686520636f727265637420737461676500000000000000a165627a7a7230582021eebbb46df7b68ec049adc50375863c8ffe68d994cbd6547842e052611059640029a165627a7a723058202e8785a050691db93e6d7f54b848b2964ff0007ceaddf990a60b6dcd5cbbbbf00029",
  "source": "pragma solidity ^0.5.0;\nimport \"./Exchangedata.sol\";\n\ncontract Factory {\n\n    uint256 public exchangesCounter;\n\n    mapping(uint256 => Exchangedata) public exchangedatas;\n\n    uint256 public n;\n    uint256 public p;\n    uint256 public collateral;\n    address payable public provider;\n\n//     constructor() payable public {\n//         provider = msg.sender;\n//   }\n\n      constructor(uint256 _n, uint256 _p, uint256 _collateral) payable public {\n        n = _n;\n        p = _p;\n        collateral = _collateral;\n        provider = msg.sender;\n     }\n\n     event SCcreated(\n        Exchangedata exchangedata\n     );\n\n\n   function createChildContract() public payable{\n      // insert check if the sent ether is enough to cover the SC ...\n      exchangesCounter ++;\n      exchangedatas[exchangesCounter] = new Exchangedata(n, p, collateral, msg.sender, provider);\n      emit SCcreated(exchangedatas[exchangesCounter]);\n   }\n\n}",
  "sourcePath": "/home/jesus/Escritorio/tfg SC/contracts/Factory.sol",
  "compiler": {
    "name": "solc",
    "version": "0.5.0+commit.1d4f565a.Emscripten.clang"
  },
  "schemaVersion": "3.0.9",
  "updatedAt": "2019-09-06T18:35:09.680Z",
  "devdoc": {
    "methods": {}
  },
  "userdoc": {
    "methods": {}
  }
}