{
  "contractName": "MerkleTreesMock",
  "abi": [
    {
      "constant": true,
      "inputs": [],
      "name": "rootmerkle",
      "outputs": [
        {
          "name": "",
          "type": "bytes32"
        }
      ],
      "payable": false,
      "stateMutability": "view",
      "type": "function"
    },
    {
      "anonymous": false,
      "inputs": [
        {
          "indexed": false,
          "name": "merkle",
          "type": "bytes32"
        }
      ],
      "name": "merkleroot",
      "type": "event"
    },
    {
      "constant": false,
      "inputs": [
        {
          "name": "concatenatedLeafData",
          "type": "bytes"
        },
        {
          "name": "leafDataLengths",
          "type": "uint256[]"
        }
      ],
      "name": "computeRoot",
      "outputs": [],
      "payable": false,
      "stateMutability": "nonpayable",
      "type": "function"
    },
    {
      "constant": true,
      "inputs": [
        {
          "name": "root",
          "type": "bytes32"
        },
        {
          "name": "leafData",
          "type": "bytes"
        },
        {
          "name": "proof",
          "type": "bytes32[]"
        }
      ],
      "name": "verifyProof",
      "outputs": [
        {
          "name": "",
          "type": "bool"
        }
      ],
      "payable": false,
      "stateMutability": "pure",
      "type": "function"
    }
  ],
  "bytecode": "0x608060405234801561001057600080fd5b50610817806100206000396000f3fe6080604052600436106100565763ffffffff7c0100000000000000000000000000000000000000000000000000000000600035041663021d3109811461005b5780634121d67914610194578063c11d038e146101bb575b600080fd5b34801561006757600080fd5b506101926004803603604081101561007e57600080fd5b81019060208101813564010000000081111561009957600080fd5b8201836020820111156100ab57600080fd5b803590602001918460018302840111640100000000831117156100cd57600080fd5b91908080601f016020809104026020016040519081016040528093929190818152602001838380828437600092019190915250929594936020810193503591505064010000000081111561012057600080fd5b82018360208201111561013257600080fd5b8035906020019184602083028401116401000000008311171561015457600080fd5b91908080602002602001604051908101604052809392919081815260200183836020028082843760009201919091525092955061030d945050505050565b005b3480156101a057600080fd5b506101a96103b4565b60408051918252519081900360200190f35b3480156101c757600080fd5b506102f9600480360360608110156101de57600080fd5b8135919081019060408101602082013564010000000081111561020057600080fd5b82018360208201111561021257600080fd5b8035906020019184600183028401116401000000008311171561023457600080fd5b91908080601f016020809104026020016040519081016040528093929190818152602001838380828437600092019190915250929594936020810193503591505064010000000081111561028757600080fd5b82018360208201111561029957600080fd5b803590602001918460208302840111640100000000831117156102bb57600080fd5b9190808060200260200160405190810160405280939291908181526020018383602002808284376000920191909152509295506103ba945050505050565b604080519115158252519081900360200190f35b606061031983836103cf565b90506103236107d3565b61032d825161051e565b905060005b825181101561036d5761036581848381518110151561034d57fe5b6020908102909101015184919063ffffffff61056a16565b600101610332565b5061037781610590565b600081905560408051918252517fb751aef5b3b2c8f1f0672fb4b847f31cf461e75a0b059a1291ead74c705259809181900360200190a150505050565b60005481565b60006103c7848484610692565b949350505050565b6060815160405190808252806020026020018201604052801561040657816020015b60608152602001906001900390816103f15790505b5090506000805b835181101561050c576000848281518110151561042657fe5b906020019060200201519050806040519080825280601f01601f19166020018201604052801561045d576020820181803883390190505b50848381518110151561046c57fe5b6020908102909101015260005b8181101561050257865160018501948891811061049257fe5b90602001015160f860020a900460f860020a0285848151811015156104b357fe5b60209081029091010151805160018401939081106104cd57fe5b9060200101907effffffffffffffffffffffffffffffffffffffffffffffffffffffffffffff1916908160001a905350610479565b505060010161040d565b508351811461051757fe5b5092915050565b6105266107d3565b600182101561053157fe5b8160405190808252806020026020018201604052801561055b578160200160208202803883390190505b50815260006020820152919050565b610573816106d3565b835180518490811061058157fe5b60209081029091010152505050565b60208101516000901561059f57fe5b8151515b806001101561066a576002810460005b8181101561061d578451805160028302916105fc91839081106105d257fe5b6020908102909101015187518051600185019081106105ed57fe5b90602001906020020151610757565b865180518490811061060a57fe5b60209081029091010152506001016105b3565b5060028206600114156106635783518051600019840190811061063c57fe5b6020908102909101015184518051600184019390811061065857fe5b602090810290910101525b90506105a3565b6001602084015282518051600090811061068057fe5b90602001906020020151915050919050565b60008061069e846106d3565b905060005b83518110156106c8576106be8285838151811015156105ed57fe5b91506001016106a3565b509093149392505050565b6040516000602080830182815284519293849386936021909201918401908083835b602083106107145780518252601f1990920191602091820191016106f5565b6001836020036101000a03801982511681845116808217855250505050505090500192505050604051602081830303815290604052805190602001209050919050565b6000818310610794576040805160f860020a60208201526021810184905260418082018690528251808303909101815260619091019091526107c4565b6040805160f860020a60208201526021810185905260418082018590528251808303909101815260619091019091525b80519060200120905092915050565b6040805180820190915260608152600060208201529056fea165627a7a72305820ece6c077c24885b644b1e632ee6ae3dbd4d9194448bd0911a11b0c07949b824b0029",
  "source": "pragma solidity ^0.5.0;\n\nimport \"./MerkleTrees.sol\";\n\ncontract MerkleTreesMock {\n    bytes32 public rootmerkle;\n\n\n    event merkleroot(\n        bytes32 merkle\n    );\n\n    function _split(bytes memory concatenated, uint256[] memory sizes)\n        internal\n        pure\n        returns (bytes[] memory parts)\n    {\n        parts = new bytes[](sizes.length);\n        uint256 k = 0;\n        for (uint256 i = 0; i < sizes.length; i++) {\n            uint256 size = sizes[i];\n            parts[i] = new bytes(size);\n            for (uint256 j = 0; j < size;) {\n                parts[i][j++] = concatenated[k++];\n            }\n        }\n        assert(k == concatenated.length);\n    }\n\n    using MerkleTrees for MerkleTrees.Tree;\n\n    function computeRoot(bytes memory concatenatedLeafData, uint256[] memory leafDataLengths) public\n    {\n        bytes[] memory leaves = _split(concatenatedLeafData, leafDataLengths);\n        MerkleTrees.Tree memory tree = MerkleTrees.newTree(leaves.length);\n        for (uint256 i = 0; i < leaves.length; i++) {\n            tree.setLeafDataBlock(i, leaves[i]);\n        }\n        rootmerkle = tree.computeRoot();\n        emit merkleroot(rootmerkle);\n    }\n\n    function verifyProof(\n        bytes32 root,\n        bytes memory leafData,\n        bytes32[] memory proof\n    )\n        public\n        pure\n        returns (bool)\n    {\n        return MerkleTrees.verifyProof(root, leafData, proof);\n    }\n\n}",
  "sourcePath": "/home/jesus/Escritorio/tfg SC/contracts/MerkleTreesMock.sol",
  "compiler": {
    "name": "solc",
    "version": "0.5.0+commit.1d4f565a.Emscripten.clang"
  },
  "schemaVersion": "3.0.9",
  "updatedAt": "2019-09-12T11:23:54.623Z",
  "devdoc": {
    "methods": {}
  },
  "userdoc": {
    "methods": {}
  }
}