{
  "contractName": "SeedMerkle",
  "abi": [
    {
      "constant": true,
      "inputs": [],
      "name": "rootmerkle",
      "outputs": [
        {
          "name": "",
          "type": "bytes32"
        }
      ],
      "payable": false,
      "stateMutability": "view",
      "type": "function"
    },
    {
      "constant": true,
      "inputs": [],
      "name": "test2",
      "outputs": [
        {
          "name": "",
          "type": "bytes"
        }
      ],
      "payable": false,
      "stateMutability": "view",
      "type": "function"
    },
    {
      "constant": true,
      "inputs": [
        {
          "name": "",
          "type": "uint256"
        }
      ],
      "name": "leaves2",
      "outputs": [
        {
          "name": "",
          "type": "bytes32"
        }
      ],
      "payable": false,
      "stateMutability": "view",
      "type": "function"
    },
    {
      "constant": true,
      "inputs": [],
      "name": "test",
      "outputs": [
        {
          "name": "",
          "type": "bytes"
        }
      ],
      "payable": false,
      "stateMutability": "view",
      "type": "function"
    },
    {
      "anonymous": false,
      "inputs": [
        {
          "indexed": false,
          "name": "merkle",
          "type": "bytes32"
        }
      ],
      "name": "merkleroot",
      "type": "event"
    },
    {
      "constant": false,
      "inputs": [
        {
          "name": "seed",
          "type": "bytes"
        },
        {
          "name": "nleaves",
          "type": "uint256"
        }
      ],
      "name": "computeRoot",
      "outputs": [],
      "payable": false,
      "stateMutability": "nonpayable",
      "type": "function"
    },
    {
      "constant": true,
      "inputs": [
        {
          "name": "root",
          "type": "bytes32"
        },
        {
          "name": "leafData",
          "type": "bytes"
        },
        {
          "name": "proof",
          "type": "bytes32[]"
        }
      ],
      "name": "verifyProof",
      "outputs": [
        {
          "name": "",
          "type": "bool"
        }
      ],
      "payable": false,
      "stateMutability": "pure",
      "type": "function"
    }
  ],
  "bytecode": "0x608060405234801561001057600080fd5b506109a1806100206000396000f3fe6080604052600436106100775763ffffffff7c01000000000000000000000000000000000000000000000000000000006000350416634121d679811461007c57806366e41cb7146100a35780638f217dbe1461012d578063c11d038e146101e4578063e35a0bc814610336578063f8a8fd6d14610360575b600080fd5b34801561008857600080fd5b50610091610375565b60408051918252519081900360200190f35b3480156100af57600080fd5b506100b861037b565b6040805160208082528351818301528351919283929083019185019080838360005b838110156100f25781810151838201526020016100da565b50505050905090810190601f16801561011f5780820380516001836020036101000a031916815260200191505b509250505060405180910390f35b34801561013957600080fd5b506101e26004803603604081101561015057600080fd5b81019060208101813564010000000081111561016b57600080fd5b82018360208201111561017d57600080fd5b8035906020019184600183028401116401000000008311171561019f57600080fd5b91908080601f0160208091040260200160405190810160405280939291908181526020018383808284376000920191909152509295505091359250610409915050565b005b3480156101f057600080fd5b506103226004803603606081101561020757600080fd5b8135919081019060408101602082013564010000000081111561022957600080fd5b82018360208201111561023b57600080fd5b8035906020019184600183028401116401000000008311171561025d57600080fd5b91908080601f01602080910402602001604051908101604052809392919081815260200183838082843760009201919091525092959493602081019350359150506401000000008111156102b057600080fd5b8201836020820111156102c257600080fd5b803590602001918460208302840111640100000000831117156102e457600080fd5b9190808060200260200160405190810160405280939291908181526020018383602002808284376000920191909152509295506105b4945050505050565b604080519115158252519081900360200190f35b34801561034257600080fd5b506100916004803603602081101561035957600080fd5b50356105c9565b34801561036c57600080fd5b506100b86105e8565b60005481565b6003805460408051602060026001851615610100026000190190941693909304601f810184900484028201840190925281815292918301828280156104015780601f106103d657610100808354040283529160200191610401565b820191906000526020600020905b8154815290600101906020018083116103e457829003601f168201915b505050505081565b606081604051908082528060200260200182016040528015610435578160200160208202803883390190505b50905060005b828110156104e5578084604051602001808360ff1660ff1660f860020a02815260010182805190602001908083835b602083106104895780518252601f19909201916020918201910161046a565b6001836020036101000a038019825116818451168082178552505050505050905001925050506040516020818303038152906040528051906020012082828151811015156104d357fe5b6020908102909101015260010161043b565b5080516104f99060019060208401906108f5565b50610502610940565b61050c8251610640565b905060005b825181101561056d5761056581848381518110151561052c57fe5b90602001906020020151604051602001808281526020019150506040516020818303038152906040528461068c9092919063ffffffff16565b600101610511565b50610577816106b2565b600081905560408051918252517fb751aef5b3b2c8f1f0672fb4b847f31cf461e75a0b059a1291ead74c705259809181900360200190a150505050565b60006105c18484846107b4565b949350505050565b60018054829081106105d757fe5b600091825260209091200154905081565b6002805460408051602060018416156101000260001901909316849004601f810184900484028201840190925281815292918301828280156104015780601f106103d657610100808354040283529160200191610401565b610648610940565b600182101561065357fe5b8160405190808252806020026020018201604052801561067d578160200160208202803883390190505b50815260006020820152919050565b610695816107f5565b83518051849081106106a357fe5b60209081029091010152505050565b6020810151600090156106c157fe5b8151515b806001101561078c576002810460005b8181101561073f5784518051600283029161071e91839081106106f457fe5b60209081029091010151875180516001850190811061070f57fe5b90602001906020020151610879565b865180518490811061072c57fe5b60209081029091010152506001016106d5565b5060028206600114156107855783518051600019840190811061075e57fe5b6020908102909101015184518051600184019390811061077a57fe5b602090810290910101525b90506106c5565b600160208401528251805160009081106107a257fe5b90602001906020020151915050919050565b6000806107c0846107f5565b905060005b83518110156107ea576107e082858381518110151561070f57fe5b91506001016107c5565b509093149392505050565b6040516000602080830182815284519293849386936021909201918401908083835b602083106108365780518252601f199092019160209182019101610817565b6001836020036101000a03801982511681845116808217855250505050505090500192505050604051602081830303815290604052805190602001209050919050565b60008183106108b6576040805160f860020a60208201526021810184905260418082018690528251808303909101815260619091019091526108e6565b6040805160f860020a60208201526021810185905260418082018590528251808303909101815260619091019091525b80519060200120905092915050565b828054828255906000526020600020908101928215610930579160200282015b82811115610930578251825591602001919060010190610915565b5061093c929150610958565b5090565b60408051808201909152606081526000602082015290565b61097291905b8082111561093c576000815560010161095e565b9056fea165627a7a72305820e51291f49d97c27df118aba3c1a7b3c3cdf7a1bffbbf0d88955f1e14bf8eb25f0029",
  "source": "pragma solidity ^0.5.0;\n\nimport \"./MerkleTrees.sol\";\n\ncontract SeedMerkle {\n    bytes32 public rootmerkle;\n    bytes32[] public leaves2;\n    bytes public test;\n    bytes public test2;\n\n    event merkleroot(\n        bytes32 merkle\n    );\n\n    function _split(bytes memory concatenated, uint256[] memory sizes)\n        internal\n        pure\n        returns (bytes[] memory parts)\n    {\n        parts = new bytes[](sizes.length);\n        uint256 k = 0;\n        for (uint256 i = 0; i < sizes.length; i++) {\n            uint256 size = sizes[i];\n            parts[i] = new bytes(size);\n            for (uint256 j = 0; j < size;) {\n                parts[i][j++] = concatenated[k++];\n            }\n        }\n        assert(k == concatenated.length);\n    }\n\n    using MerkleTrees for MerkleTrees.Tree;\n\n    function computeRoot(bytes memory seed, uint256 nleaves) public\n    {\n        bytes32[] memory leaves = new bytes32[](nleaves);\n\n        for (uint256 i = 0; i < nleaves; i++){\n            leaves[i] = keccak256(abi.encodePacked(uint8(i),seed));\n        }\n        leaves2 = leaves;\n        MerkleTrees.Tree memory tree = MerkleTrees.newTree(leaves.length);\n        for (uint256 i = 0; i < leaves.length; i++) {\n            tree.setLeafDataBlock(i, abi.encodePacked(leaves[i]));\n        }\n        rootmerkle = tree.computeRoot();\n        emit merkleroot(rootmerkle);\n    }\n\n    function verifyProof(\n        bytes32 root,\n        bytes memory leafData,\n        bytes32[] memory proof\n    )\n        public\n        pure\n        returns (bool)\n    {\n        return MerkleTrees.verifyProof(root, leafData, proof);\n    }\n\n}",
  "sourcePath": "/home/jesus/Escritorio/tfg SC/contracts/SeedMerkle.sol",
  "compiler": {
    "name": "solc",
    "version": "0.5.0+commit.1d4f565a.Emscripten.clang"
  },
  "schemaVersion": "3.0.9",
  "updatedAt": "2019-09-12T11:23:55.028Z",
  "devdoc": {
    "methods": {}
  },
  "userdoc": {
    "methods": {}
  }
}